{
  "contractName": "CostumNFT",
  "abi": [
    {
      "inputs": [
        {
          "internalType": "address",
          "name": "_newOwner",
          "type": "address"
        },
        {
          "internalType": "address",
          "name": "_contractMinter",
          "type": "address"
        },
        {
          "internalType": "string",
          "name": "name_",
          "type": "string"
        },
        {
          "internalType": "string",
          "name": "symbol_",
          "type": "string"
        }
      ],
      "stateMutability": "nonpayable",
      "type": "constructor"
    },
    {
      "anonymous": false,
      "inputs": [
        {
          "indexed": true,
          "internalType": "address",
          "name": "owner",
          "type": "address"
        },
        {
          "indexed": true,
          "internalType": "address",
          "name": "approved",
          "type": "address"
        },
        {
          "indexed": true,
          "internalType": "uint256",
          "name": "tokenId",
          "type": "uint256"
        }
      ],
      "name": "Approval",
      "type": "event"
    },
    {
      "anonymous": false,
      "inputs": [
        {
          "indexed": true,
          "internalType": "address",
          "name": "owner",
          "type": "address"
        },
        {
          "indexed": true,
          "internalType": "address",
          "name": "operator",
          "type": "address"
        },
        {
          "indexed": false,
          "internalType": "bool",
          "name": "approved",
          "type": "bool"
        }
      ],
      "name": "ApprovalForAll",
      "type": "event"
    },
    {
      "anonymous": false,
      "inputs": [
        {
          "indexed": true,
          "internalType": "uint256",
          "name": "tokenId",
          "type": "uint256"
        },
        {
          "indexed": true,
          "internalType": "address",
          "name": "assignee",
          "type": "address"
        },
        {
          "indexed": false,
          "internalType": "string",
          "name": "tokenURI",
          "type": "string"
        }
      ],
      "name": "Mint",
      "type": "event"
    },
    {
      "anonymous": false,
      "inputs": [
        {
          "indexed": true,
          "internalType": "address",
          "name": "previousOwner",
          "type": "address"
        },
        {
          "indexed": true,
          "internalType": "address",
          "name": "newOwner",
          "type": "address"
        }
      ],
      "name": "OwnershipTransferred",
      "type": "event"
    },
    {
      "anonymous": false,
      "inputs": [
        {
          "indexed": true,
          "internalType": "address",
          "name": "from",
          "type": "address"
        },
        {
          "indexed": true,
          "internalType": "address",
          "name": "to",
          "type": "address"
        },
        {
          "indexed": true,
          "internalType": "uint256",
          "name": "tokenId",
          "type": "uint256"
        }
      ],
      "name": "Transfer",
      "type": "event"
    },
    {
      "inputs": [
        {
          "internalType": "address",
          "name": "to",
          "type": "address"
        },
        {
          "internalType": "uint256",
          "name": "tokenId",
          "type": "uint256"
        }
      ],
      "name": "approve",
      "outputs": [],
      "stateMutability": "nonpayable",
      "type": "function"
    },
    {
      "inputs": [
        {
          "internalType": "address",
          "name": "owner",
          "type": "address"
        }
      ],
      "name": "balanceOf",
      "outputs": [
        {
          "internalType": "uint256",
          "name": "",
          "type": "uint256"
        }
      ],
      "stateMutability": "view",
      "type": "function"
    },
    {
      "inputs": [
        {
          "internalType": "uint256",
          "name": "tokenId",
          "type": "uint256"
        }
      ],
      "name": "getApproved",
      "outputs": [
        {
          "internalType": "address",
          "name": "",
          "type": "address"
        }
      ],
      "stateMutability": "view",
      "type": "function"
    },
    {
      "inputs": [
        {
          "internalType": "address",
          "name": "owner",
          "type": "address"
        },
        {
          "internalType": "address",
          "name": "operator",
          "type": "address"
        }
      ],
      "name": "isApprovedForAll",
      "outputs": [
        {
          "internalType": "bool",
          "name": "",
          "type": "bool"
        }
      ],
      "stateMutability": "view",
      "type": "function"
    },
    {
      "inputs": [],
      "name": "name",
      "outputs": [
        {
          "internalType": "string",
          "name": "",
          "type": "string"
        }
      ],
      "stateMutability": "view",
      "type": "function"
    },
    {
      "inputs": [],
      "name": "owner",
      "outputs": [
        {
          "internalType": "address",
          "name": "",
          "type": "address"
        }
      ],
      "stateMutability": "view",
      "type": "function"
    },
    {
      "inputs": [
        {
          "internalType": "uint256",
          "name": "tokenId",
          "type": "uint256"
        }
      ],
      "name": "ownerOf",
      "outputs": [
        {
          "internalType": "address",
          "name": "",
          "type": "address"
        }
      ],
      "stateMutability": "view",
      "type": "function"
    },
    {
      "inputs": [],
      "name": "renounceOwnership",
      "outputs": [],
      "stateMutability": "nonpayable",
      "type": "function"
    },
    {
      "inputs": [
        {
          "internalType": "address",
          "name": "from",
          "type": "address"
        },
        {
          "internalType": "address",
          "name": "to",
          "type": "address"
        },
        {
          "internalType": "uint256",
          "name": "tokenId",
          "type": "uint256"
        }
      ],
      "name": "safeTransferFrom",
      "outputs": [],
      "stateMutability": "nonpayable",
      "type": "function"
    },
    {
      "inputs": [
        {
          "internalType": "address",
          "name": "from",
          "type": "address"
        },
        {
          "internalType": "address",
          "name": "to",
          "type": "address"
        },
        {
          "internalType": "uint256",
          "name": "tokenId",
          "type": "uint256"
        },
        {
          "internalType": "bytes",
          "name": "data",
          "type": "bytes"
        }
      ],
      "name": "safeTransferFrom",
      "outputs": [],
      "stateMutability": "nonpayable",
      "type": "function"
    },
    {
      "inputs": [
        {
          "internalType": "address",
          "name": "operator",
          "type": "address"
        },
        {
          "internalType": "bool",
          "name": "approved",
          "type": "bool"
        }
      ],
      "name": "setApprovalForAll",
      "outputs": [],
      "stateMutability": "nonpayable",
      "type": "function"
    },
    {
      "inputs": [
        {
          "internalType": "bytes4",
          "name": "interfaceId",
          "type": "bytes4"
        }
      ],
      "name": "supportsInterface",
      "outputs": [
        {
          "internalType": "bool",
          "name": "",
          "type": "bool"
        }
      ],
      "stateMutability": "view",
      "type": "function"
    },
    {
      "inputs": [],
      "name": "symbol",
      "outputs": [
        {
          "internalType": "string",
          "name": "",
          "type": "string"
        }
      ],
      "stateMutability": "view",
      "type": "function"
    },
    {
      "inputs": [
        {
          "internalType": "uint256",
          "name": "tokenId",
          "type": "uint256"
        }
      ],
      "name": "tokenURI",
      "outputs": [
        {
          "internalType": "string",
          "name": "",
          "type": "string"
        }
      ],
      "stateMutability": "view",
      "type": "function"
    },
    {
      "inputs": [
        {
          "internalType": "address",
          "name": "from",
          "type": "address"
        },
        {
          "internalType": "address",
          "name": "to",
          "type": "address"
        },
        {
          "internalType": "uint256",
          "name": "tokenId",
          "type": "uint256"
        }
      ],
      "name": "transferFrom",
      "outputs": [],
      "stateMutability": "nonpayable",
      "type": "function"
    },
    {
      "inputs": [
        {
          "internalType": "address",
          "name": "newOwner",
          "type": "address"
        }
      ],
      "name": "transferOwnership",
      "outputs": [],
      "stateMutability": "nonpayable",
      "type": "function"
    },
    {
      "inputs": [
        {
          "internalType": "string",
          "name": "tokenURI",
          "type": "string"
        },
        {
          "internalType": "address",
          "name": "_client",
          "type": "address"
        }
      ],
      "name": "minting",
      "outputs": [],
      "stateMutability": "nonpayable",
      "type": "function"
    }
  ],
  "bytecode": "0x60806040523480156200001157600080fd5b506040516200367138038062003671833981810160405281019062000037919062000456565b818181600090805190602001906200005192919062000311565b5080600190805190602001906200006a92919062000311565b5050506200008d62000081620000f160201b60201c565b620000f960201b60201c565b6001600881905550620000a684620001bf60201b60201c565b82600a60006101000a81548173ffffffffffffffffffffffffffffffffffffffff021916908373ffffffffffffffffffffffffffffffffffffffff16021790555050505050620007f3565b600033905090565b6000600760009054906101000a900473ffffffffffffffffffffffffffffffffffffffff16905081600760006101000a81548173ffffffffffffffffffffffffffffffffffffffff021916908373ffffffffffffffffffffffffffffffffffffffff1602179055508173ffffffffffffffffffffffffffffffffffffffff168173ffffffffffffffffffffffffffffffffffffffff167f8be0079c531659141344cd1fd0a4f28419497f9722a3daafe3b4186f6b6457e060405160405180910390a35050565b620001cf6200025660201b60201c565b600073ffffffffffffffffffffffffffffffffffffffff168173ffffffffffffffffffffffffffffffffffffffff16141562000242576040517f08c379a0000000000000000000000000000000000000000000000000000000008152600401620002399062000554565b60405180910390fd5b6200025381620000f960201b60201c565b50565b62000266620000f160201b60201c565b73ffffffffffffffffffffffffffffffffffffffff166200028c620002e760201b60201c565b73ffffffffffffffffffffffffffffffffffffffff1614620002e5576040517f08c379a0000000000000000000000000000000000000000000000000000000008152600401620002dc9062000576565b60405180910390fd5b565b6000600760009054906101000a900473ffffffffffffffffffffffffffffffffffffffff16905090565b8280546200031f9062000672565b90600052602060002090601f0160209004810192826200034357600085556200038f565b82601f106200035e57805160ff19168380011785556200038f565b828001600101855582156200038f579182015b828111156200038e57825182559160200191906001019062000371565b5b5090506200039e9190620003a2565b5090565b5b80821115620003bd576000816000905550600101620003a3565b5090565b6000620003d8620003d284620005c1565b62000598565b905082815260208101848484011115620003f757620003f662000741565b5b620004048482856200063c565b509392505050565b6000815190506200041d81620007d9565b92915050565b600082601f8301126200043b576200043a6200073c565b5b81516200044d848260208601620003c1565b91505092915050565b600080600080608085870312156200047357620004726200074b565b5b600062000483878288016200040c565b945050602062000496878288016200040c565b935050604085015167ffffffffffffffff811115620004ba57620004b962000746565b5b620004c88782880162000423565b925050606085015167ffffffffffffffff811115620004ec57620004eb62000746565b5b620004fa8782880162000423565b91505092959194509250565b600062000515602683620005f7565b9150620005228262000761565b604082019050919050565b60006200053c602083620005f7565b91506200054982620007b0565b602082019050919050565b600060208201905081810360008301526200056f8162000506565b9050919050565b6000602082019050818103600083015262000591816200052d565b9050919050565b6000620005a4620005b7565b9050620005b28282620006a8565b919050565b6000604051905090565b600067ffffffffffffffff821115620005df57620005de6200070d565b5b620005ea8262000750565b9050602081019050919050565b600082825260208201905092915050565b600062000615826200061c565b9050919050565b600073ffffffffffffffffffffffffffffffffffffffff82169050919050565b60005b838110156200065c5780820151818401526020810190506200063f565b838111156200066c576000848401525b50505050565b600060028204905060018216806200068b57607f821691505b60208210811415620006a257620006a1620006de565b5b50919050565b620006b38262000750565b810181811067ffffffffffffffff82111715620006d557620006d46200070d565b5b80604052505050565b7f4e487b7100000000000000000000000000000000000000000000000000000000600052602260045260246000fd5b7f4e487b7100000000000000000000000000000000000000000000000000000000600052604160045260246000fd5b600080fd5b600080fd5b600080fd5b600080fd5b6000601f19601f8301169050919050565b7f4f776e61626c653a206e6577206f776e657220697320746865207a65726f206160008201527f6464726573730000000000000000000000000000000000000000000000000000602082015250565b7f4f776e61626c653a2063616c6c6572206973206e6f7420746865206f776e6572600082015250565b620007e48162000608565b8114620007f057600080fd5b50565b612e6e80620008036000396000f3fe608060405234801561001057600080fd5b506004361061010b5760003560e01c8063715018a6116100a2578063b458438f11610071578063b458438f146102a4578063b88d4fde146102c0578063c87b56dd146102dc578063e985e9c51461030c578063f2fde38b1461033c5761010b565b8063715018a6146102425780638da5cb5b1461024c57806395d89b411461026a578063a22cb465146102885761010b565b806323b872dd116100de57806323b872dd146101aa57806342842e0e146101c65780636352211e146101e257806370a08231146102125761010b565b806301ffc9a71461011057806306fdde0314610140578063081812fc1461015e578063095ea7b31461018e575b600080fd5b61012a60048036038101906101259190611eda565b610358565b6040516101379190612379565b60405180910390f35b61014861043a565b60405161015591906123b8565b60405180910390f35b61017860048036038101906101739190611f94565b6104cc565b6040516101859190612312565b60405180910390f35b6101a860048036038101906101a39190611e9a565b610512565b005b6101c460048036038101906101bf9190611d84565b61062a565b005b6101e060048036038101906101db9190611d84565b61068a565b005b6101fc60048036038101906101f79190611f94565b6106aa565b6040516102099190612312565b60405180910390f35b61022c60048036038101906102279190611d17565b61075c565b60405161023991906125da565b60405180910390f35b61024a610814565b005b610254610828565b6040516102619190612312565b60405180910390f35b610272610852565b60405161027f91906123b8565b60405180910390f35b6102a2600480360381019061029d9190611e5a565b6108e4565b005b6102be60048036038101906102b99190611f34565b6108fa565b005b6102da60048036038101906102d59190611dd7565b610960565b005b6102f660048036038101906102f19190611f94565b6109c2565b60405161030391906123b8565b60405180910390f35b61032660048036038101906103219190611d44565b610ad5565b6040516103339190612379565b60405180910390f35b61035660048036038101906103519190611d17565b610b69565b005b60007f80ac58cd000000000000000000000000000000000000000000000000000000007bffffffffffffffffffffffffffffffffffffffffffffffffffffffff1916827bffffffffffffffffffffffffffffffffffffffffffffffffffffffff1916148061042357507f5b5e139f000000000000000000000000000000000000000000000000000000007bffffffffffffffffffffffffffffffffffffffffffffffffffffffff1916827bffffffffffffffffffffffffffffffffffffffffffffffffffffffff1916145b80610433575061043282610bed565b5b9050919050565b606060008054610449906127ff565b80601f0160208091040260200160405190810160405280929190818152602001828054610475906127ff565b80156104c25780601f10610497576101008083540402835291602001916104c2565b820191906000526020600020905b8154815290600101906020018083116104a557829003601f168201915b5050505050905090565b60006104d782610c57565b6004600083815260200190815260200160002060009054906101000a900473ffffffffffffffffffffffffffffffffffffffff169050919050565b600061051d826106aa565b90508073ffffffffffffffffffffffffffffffffffffffff168373ffffffffffffffffffffffffffffffffffffffff16141561058e576040517f08c379a00000000000000000000000000000000000000000000000000000000081526004016105859061257a565b60405180910390fd5b8073ffffffffffffffffffffffffffffffffffffffff166105ad610ca2565b73ffffffffffffffffffffffffffffffffffffffff1614806105dc57506105db816105d6610ca2565b610ad5565b5b61061b576040517f08c379a0000000000000000000000000000000000000000000000000000000008152600401610612906124da565b60405180910390fd5b6106258383610caa565b505050565b61063b610635610ca2565b82610d63565b61067a576040517f08c379a00000000000000000000000000000000000000000000000000000000081526004016106719061259a565b60405180910390fd5b610685838383610df8565b505050565b6106a583838360405180602001604052806000815250610960565b505050565b6000806002600084815260200190815260200160002060009054906101000a900473ffffffffffffffffffffffffffffffffffffffff169050600073ffffffffffffffffffffffffffffffffffffffff168173ffffffffffffffffffffffffffffffffffffffff161415610753576040517f08c379a000000000000000000000000000000000000000000000000000000000815260040161074a9061255a565b60405180910390fd5b80915050919050565b60008073ffffffffffffffffffffffffffffffffffffffff168273ffffffffffffffffffffffffffffffffffffffff1614156107cd576040517f08c379a00000000000000000000000000000000000000000000000000000000081526004016107c49061249a565b60405180910390fd5b600360008373ffffffffffffffffffffffffffffffffffffffff1673ffffffffffffffffffffffffffffffffffffffff168152602001908152602001600020549050919050565b61081c61105f565b61082660006110dd565b565b6000600760009054906101000a900473ffffffffffffffffffffffffffffffffffffffff16905090565b606060018054610861906127ff565b80601f016020809104026020016040519081016040528092919081815260200182805461088d906127ff565b80156108da5780601f106108af576101008083540402835291602001916108da565b820191906000526020600020905b8154815290600101906020018083116108bd57829003601f168201915b5050505050905090565b6108f66108ef610ca2565b83836111a3565b5050565b60026008541415610940576040517f08c379a0000000000000000000000000000000000000000000000000000000008152600401610937906125ba565b60405180910390fd5b6002600881905550610953838383611310565b6001600881905550505050565b61097161096b610ca2565b83610d63565b6109b0576040517f08c379a00000000000000000000000000000000000000000000000000000000081526004016109a79061259a565b60405180910390fd5b6109bc84848484611467565b50505050565b60606109cd82610c57565b60006006600084815260200190815260200160002080546109ed906127ff565b80601f0160208091040260200160405190810160405280929190818152602001828054610a19906127ff565b8015610a665780601f10610a3b57610100808354040283529160200191610a66565b820191906000526020600020905b815481529060010190602001808311610a4957829003601f168201915b505050505090506000610a776114c3565b9050600081511415610a8d578192505050610ad0565b600082511115610ac2578082604051602001610aaa9291906122ee565b60405160208183030381529060405292505050610ad0565b610acb846114da565b925050505b919050565b6000600560008473ffffffffffffffffffffffffffffffffffffffff1673ffffffffffffffffffffffffffffffffffffffff16815260200190815260200160002060008373ffffffffffffffffffffffffffffffffffffffff1673ffffffffffffffffffffffffffffffffffffffff16815260200190815260200160002060009054906101000a900460ff16905092915050565b610b7161105f565b600073ffffffffffffffffffffffffffffffffffffffff168173ffffffffffffffffffffffffffffffffffffffff161415610be1576040517f08c379a0000000000000000000000000000000000000000000000000000000008152600401610bd8906123fa565b60405180910390fd5b610bea816110dd565b50565b60007f01ffc9a7000000000000000000000000000000000000000000000000000000007bffffffffffffffffffffffffffffffffffffffffffffffffffffffff1916827bffffffffffffffffffffffffffffffffffffffffffffffffffffffff1916149050919050565b610c6081611542565b610c9f576040517f08c379a0000000000000000000000000000000000000000000000000000000008152600401610c969061255a565b60405180910390fd5b50565b600033905090565b816004600083815260200190815260200160002060006101000a81548173ffffffffffffffffffffffffffffffffffffffff021916908373ffffffffffffffffffffffffffffffffffffffff160217905550808273ffffffffffffffffffffffffffffffffffffffff16610d1d836106aa565b73ffffffffffffffffffffffffffffffffffffffff167f8c5be1e5ebec7d5bd14f71427d1e84f3dd0314c0f7b2291e5b200ac8c7c3b92560405160405180910390a45050565b600080610d6f836106aa565b90508073ffffffffffffffffffffffffffffffffffffffff168473ffffffffffffffffffffffffffffffffffffffff161480610db15750610db08185610ad5565b5b80610def57508373ffffffffffffffffffffffffffffffffffffffff16610dd7846104cc565b73ffffffffffffffffffffffffffffffffffffffff16145b91505092915050565b8273ffffffffffffffffffffffffffffffffffffffff16610e18826106aa565b73ffffffffffffffffffffffffffffffffffffffff1614610e6e576040517f08c379a0000000000000000000000000000000000000000000000000000000008152600401610e659061241a565b60405180910390fd5b600073ffffffffffffffffffffffffffffffffffffffff168273ffffffffffffffffffffffffffffffffffffffff161415610ede576040517f08c379a0000000000000000000000000000000000000000000000000000000008152600401610ed59061245a565b60405180910390fd5b610ee98383836115ae565b610ef4600082610caa565b6001600360008573ffffffffffffffffffffffffffffffffffffffff1673ffffffffffffffffffffffffffffffffffffffff1681526020019081526020016000206000828254610f449190612715565b925050819055506001600360008473ffffffffffffffffffffffffffffffffffffffff1673ffffffffffffffffffffffffffffffffffffffff1681526020019081526020016000206000828254610f9b919061268e565b92505081905550816002600083815260200190815260200160002060006101000a81548173ffffffffffffffffffffffffffffffffffffffff021916908373ffffffffffffffffffffffffffffffffffffffff160217905550808273ffffffffffffffffffffffffffffffffffffffff168473ffffffffffffffffffffffffffffffffffffffff167fddf252ad1be2c89b69c2b068fc378daa952ba7f163c4a11628f55a4df523b3ef60405160405180910390a461105a8383836115b3565b505050565b611067610ca2565b73ffffffffffffffffffffffffffffffffffffffff16611085610828565b73ffffffffffffffffffffffffffffffffffffffff16146110db576040517f08c379a00000000000000000000000000000000000000000000000000000000081526004016110d29061251a565b60405180910390fd5b565b6000600760009054906101000a900473ffffffffffffffffffffffffffffffffffffffff16905081600760006101000a81548173ffffffffffffffffffffffffffffffffffffffff021916908373ffffffffffffffffffffffffffffffffffffffff1602179055508173ffffffffffffffffffffffffffffffffffffffff168173ffffffffffffffffffffffffffffffffffffffff167f8be0079c531659141344cd1fd0a4f28419497f9722a3daafe3b4186f6b6457e060405160405180910390a35050565b8173ffffffffffffffffffffffffffffffffffffffff168373ffffffffffffffffffffffffffffffffffffffff161415611212576040517f08c379a00000000000000000000000000000000000000000000000000000000081526004016112099061247a565b60405180910390fd5b80600560008573ffffffffffffffffffffffffffffffffffffffff1673ffffffffffffffffffffffffffffffffffffffff16815260200190815260200160002060008473ffffffffffffffffffffffffffffffffffffffff1673ffffffffffffffffffffffffffffffffffffffff16815260200190815260200160002060006101000a81548160ff0219169083151502179055508173ffffffffffffffffffffffffffffffffffffffff168373ffffffffffffffffffffffffffffffffffffffff167f17307eab39ab6107e8899845ad3d59bd9653f200f220920489ca2b5937696c31836040516113039190612379565b60405180910390a3505050565b3373ffffffffffffffffffffffffffffffffffffffff16600a60009054906101000a900473ffffffffffffffffffffffffffffffffffffffff1673ffffffffffffffffffffffffffffffffffffffff16146113a0576040517f08c379a00000000000000000000000000000000000000000000000000000000081526004016113979061253a565b60405180910390fd5b60006113ac60096115b8565b90506113b860096115c6565b6113c282826115dc565b6114108185858080601f016020809104026020016040519081016040528093929190818152602001838380828437600081840152601f19601f820116905080830192505050505050506117b6565b8173ffffffffffffffffffffffffffffffffffffffff16817f5e6e91ac34c27031e88e32d087c8a31df9ba84699c5bdce35d6bc6597c4fa5e78686604051611459929190612394565b60405180910390a350505050565b611472848484610df8565b61147e8484848461182a565b6114bd576040517f08c379a00000000000000000000000000000000000000000000000000000000081526004016114b4906123da565b60405180910390fd5b50505050565b606060405180602001604052806000815250905090565b60606114e582610c57565b60006114ef6114c3565b9050600081511161150f576040518060200160405280600081525061153a565b80611519846119c1565b60405160200161152a9291906122ee565b6040516020818303038152906040525b915050919050565b60008073ffffffffffffffffffffffffffffffffffffffff166002600084815260200190815260200160002060009054906101000a900473ffffffffffffffffffffffffffffffffffffffff1673ffffffffffffffffffffffffffffffffffffffff1614159050919050565b505050565b505050565b600081600001549050919050565b6001816000016000828254019250508190555050565b600073ffffffffffffffffffffffffffffffffffffffff168273ffffffffffffffffffffffffffffffffffffffff16141561164c576040517f08c379a0000000000000000000000000000000000000000000000000000000008152600401611643906124fa565b60405180910390fd5b61165581611542565b15611695576040517f08c379a000000000000000000000000000000000000000000000000000000000815260040161168c9061243a565b60405180910390fd5b6116a1600083836115ae565b6001600360008473ffffffffffffffffffffffffffffffffffffffff1673ffffffffffffffffffffffffffffffffffffffff16815260200190815260200160002060008282546116f1919061268e565b92505081905550816002600083815260200190815260200160002060006101000a81548173ffffffffffffffffffffffffffffffffffffffff021916908373ffffffffffffffffffffffffffffffffffffffff160217905550808273ffffffffffffffffffffffffffffffffffffffff16600073ffffffffffffffffffffffffffffffffffffffff167fddf252ad1be2c89b69c2b068fc378daa952ba7f163c4a11628f55a4df523b3ef60405160405180910390a46117b2600083836115b3565b5050565b6117bf82611542565b6117fe576040517f08c379a00000000000000000000000000000000000000000000000000000000081526004016117f5906124ba565b60405180910390fd5b80600660008481526020019081526020016000209080519060200190611825929190611b45565b505050565b600061184b8473ffffffffffffffffffffffffffffffffffffffff16611b22565b156119b4578373ffffffffffffffffffffffffffffffffffffffff1663150b7a02611874610ca2565b8786866040518563ffffffff1660e01b8152600401611896949392919061232d565b602060405180830381600087803b1580156118b057600080fd5b505af19250505080156118e157506040513d601f19601f820116820180604052508101906118de9190611f07565b60015b611964573d8060008114611911576040519150601f19603f3d011682016040523d82523d6000602084013e611916565b606091505b5060008151141561195c576040517f08c379a0000000000000000000000000000000000000000000000000000000008152600401611953906123da565b60405180910390fd5b805181602001fd5b63150b7a0260e01b7bffffffffffffffffffffffffffffffffffffffffffffffffffffffff1916817bffffffffffffffffffffffffffffffffffffffffffffffffffffffff1916149150506119b9565b600190505b949350505050565b60606000821415611a09576040518060400160405280600181526020017f30000000000000000000000000000000000000000000000000000000000000008152509050611b1d565b600082905060005b60008214611a3b578080611a2490612862565b915050600a82611a3491906126e4565b9150611a11565b60008167ffffffffffffffff811115611a5757611a56612998565b5b6040519080825280601f01601f191660200182016040528015611a895781602001600182028036833780820191505090505b5090505b60008514611b1657600182611aa29190612715565b9150600a85611ab191906128ab565b6030611abd919061268e565b60f81b818381518110611ad357611ad2612969565b5b60200101907effffffffffffffffffffffffffffffffffffffffffffffffffffffffffffff1916908160001a905350600a85611b0f91906126e4565b9450611a8d565b8093505050505b919050565b6000808273ffffffffffffffffffffffffffffffffffffffff163b119050919050565b828054611b51906127ff565b90600052602060002090601f016020900481019282611b735760008555611bba565b82601f10611b8c57805160ff1916838001178555611bba565b82800160010185558215611bba579182015b82811115611bb9578251825591602001919060010190611b9e565b5b509050611bc79190611bcb565b5090565b5b80821115611be4576000816000905550600101611bcc565b5090565b6000611bfb611bf68461261a565b6125f5565b905082815260208101848484011115611c1757611c166129d6565b5b611c228482856127bd565b509392505050565b600081359050611c3981612ddc565b92915050565b600081359050611c4e81612df3565b92915050565b600081359050611c6381612e0a565b92915050565b600081519050611c7881612e0a565b92915050565b600082601f830112611c9357611c926129cc565b5b8135611ca3848260208601611be8565b91505092915050565b60008083601f840112611cc257611cc16129cc565b5b8235905067ffffffffffffffff811115611cdf57611cde6129c7565b5b602083019150836001820283011115611cfb57611cfa6129d1565b5b9250929050565b600081359050611d1181612e21565b92915050565b600060208284031215611d2d57611d2c6129e0565b5b6000611d3b84828501611c2a565b91505092915050565b60008060408385031215611d5b57611d5a6129e0565b5b6000611d6985828601611c2a565b9250506020611d7a85828601611c2a565b9150509250929050565b600080600060608486031215611d9d57611d9c6129e0565b5b6000611dab86828701611c2a565b9350506020611dbc86828701611c2a565b9250506040611dcd86828701611d02565b9150509250925092565b60008060008060808587031215611df157611df06129e0565b5b6000611dff87828801611c2a565b9450506020611e1087828801611c2a565b9350506040611e2187828801611d02565b925050606085013567ffffffffffffffff811115611e4257611e416129db565b5b611e4e87828801611c7e565b91505092959194509250565b60008060408385031215611e7157611e706129e0565b5b6000611e7f85828601611c2a565b9250506020611e9085828601611c3f565b9150509250929050565b60008060408385031215611eb157611eb06129e0565b5b6000611ebf85828601611c2a565b9250506020611ed085828601611d02565b9150509250929050565b600060208284031215611ef057611eef6129e0565b5b6000611efe84828501611c54565b91505092915050565b600060208284031215611f1d57611f1c6129e0565b5b6000611f2b84828501611c69565b91505092915050565b600080600060408486031215611f4d57611f4c6129e0565b5b600084013567ffffffffffffffff811115611f6b57611f6a6129db565b5b611f7786828701611cac565b93509350506020611f8a86828701611c2a565b9150509250925092565b600060208284031215611faa57611fa96129e0565b5b6000611fb884828501611d02565b91505092915050565b611fca81612749565b82525050565b611fd98161275b565b82525050565b6000611fea8261264b565b611ff48185612661565b93506120048185602086016127cc565b61200d816129e5565b840191505092915050565b60006120248385612672565b93506120318385846127bd565b61203a836129e5565b840190509392505050565b600061205082612656565b61205a8185612672565b935061206a8185602086016127cc565b612073816129e5565b840191505092915050565b600061208982612656565b6120938185612683565b93506120a38185602086016127cc565b80840191505092915050565b60006120bc603283612672565b91506120c7826129f6565b604082019050919050565b60006120df602683612672565b91506120ea82612a45565b604082019050919050565b6000612102602583612672565b915061210d82612a94565b604082019050919050565b6000612125601c83612672565b915061213082612ae3565b602082019050919050565b6000612148602483612672565b915061215382612b0c565b604082019050919050565b600061216b601983612672565b915061217682612b5b565b602082019050919050565b600061218e602983612672565b915061219982612b84565b604082019050919050565b60006121b1602e83612672565b91506121bc82612bd3565b604082019050919050565b60006121d4603e83612672565b91506121df82612c22565b604082019050919050565b60006121f7602083612672565b915061220282612c71565b602082019050919050565b600061221a602083612672565b915061222582612c9a565b602082019050919050565b600061223d601383612672565b915061224882612cc3565b602082019050919050565b6000612260601883612672565b915061226b82612cec565b602082019050919050565b6000612283602183612672565b915061228e82612d15565b604082019050919050565b60006122a6602e83612672565b91506122b182612d64565b604082019050919050565b60006122c9601f83612672565b91506122d482612db3565b602082019050919050565b6122e8816127b3565b82525050565b60006122fa828561207e565b9150612306828461207e565b91508190509392505050565b60006020820190506123276000830184611fc1565b92915050565b60006080820190506123426000830187611fc1565b61234f6020830186611fc1565b61235c60408301856122df565b818103606083015261236e8184611fdf565b905095945050505050565b600060208201905061238e6000830184611fd0565b92915050565b600060208201905081810360008301526123af818486612018565b90509392505050565b600060208201905081810360008301526123d28184612045565b905092915050565b600060208201905081810360008301526123f3816120af565b9050919050565b60006020820190508181036000830152612413816120d2565b9050919050565b60006020820190508181036000830152612433816120f5565b9050919050565b6000602082019050818103600083015261245381612118565b9050919050565b600060208201905081810360008301526124738161213b565b9050919050565b600060208201905081810360008301526124938161215e565b9050919050565b600060208201905081810360008301526124b381612181565b9050919050565b600060208201905081810360008301526124d3816121a4565b9050919050565b600060208201905081810360008301526124f3816121c7565b9050919050565b60006020820190508181036000830152612513816121ea565b9050919050565b600060208201905081810360008301526125338161220d565b9050919050565b6000602082019050818103600083015261255381612230565b9050919050565b6000602082019050818103600083015261257381612253565b9050919050565b6000602082019050818103600083015261259381612276565b9050919050565b600060208201905081810360008301526125b381612299565b9050919050565b600060208201905081810360008301526125d3816122bc565b9050919050565b60006020820190506125ef60008301846122df565b92915050565b60006125ff612610565b905061260b8282612831565b919050565b6000604051905090565b600067ffffffffffffffff82111561263557612634612998565b5b61263e826129e5565b9050602081019050919050565b600081519050919050565b600081519050919050565b600082825260208201905092915050565b600082825260208201905092915050565b600081905092915050565b6000612699826127b3565b91506126a4836127b3565b9250827fffffffffffffffffffffffffffffffffffffffffffffffffffffffffffffffff038211156126d9576126d86128dc565b5b828201905092915050565b60006126ef826127b3565b91506126fa836127b3565b92508261270a5761270961290b565b5b828204905092915050565b6000612720826127b3565b915061272b836127b3565b92508282101561273e5761273d6128dc565b5b828203905092915050565b600061275482612793565b9050919050565b60008115159050919050565b60007fffffffff0000000000000000000000000000000000000000000000000000000082169050919050565b600073ffffffffffffffffffffffffffffffffffffffff82169050919050565b6000819050919050565b82818337600083830152505050565b60005b838110156127ea5780820151818401526020810190506127cf565b838111156127f9576000848401525b50505050565b6000600282049050600182168061281757607f821691505b6020821081141561282b5761282a61293a565b5b50919050565b61283a826129e5565b810181811067ffffffffffffffff8211171561285957612858612998565b5b80604052505050565b600061286d826127b3565b91507fffffffffffffffffffffffffffffffffffffffffffffffffffffffffffffffff8214156128a05761289f6128dc565b5b600182019050919050565b60006128b6826127b3565b91506128c1836127b3565b9250826128d1576128d061290b565b5b828206905092915050565b7f4e487b7100000000000000000000000000000000000000000000000000000000600052601160045260246000fd5b7f4e487b7100000000000000000000000000000000000000000000000000000000600052601260045260246000fd5b7f4e487b7100000000000000000000000000000000000000000000000000000000600052602260045260246000fd5b7f4e487b7100000000000000000000000000000000000000000000000000000000600052603260045260246000fd5b7f4e487b7100000000000000000000000000000000000000000000000000000000600052604160045260246000fd5b600080fd5b600080fd5b600080fd5b600080fd5b600080fd5b600080fd5b6000601f19601f8301169050919050565b7f4552433732313a207472616e7366657220746f206e6f6e20455243373231526560008201527f63656976657220696d706c656d656e7465720000000000000000000000000000602082015250565b7f4f776e61626c653a206e6577206f776e657220697320746865207a65726f206160008201527f6464726573730000000000000000000000000000000000000000000000000000602082015250565b7f4552433732313a207472616e736665722066726f6d20696e636f72726563742060008201527f6f776e6572000000000000000000000000000000000000000000000000000000602082015250565b7f4552433732313a20746f6b656e20616c7265616479206d696e74656400000000600082015250565b7f4552433732313a207472616e7366657220746f20746865207a65726f2061646460008201527f7265737300000000000000000000000000000000000000000000000000000000602082015250565b7f4552433732313a20617070726f766520746f2063616c6c657200000000000000600082015250565b7f4552433732313a2061646472657373207a65726f206973206e6f74206120766160008201527f6c6964206f776e65720000000000000000000000000000000000000000000000602082015250565b7f45524337323155524953746f726167653a2055524920736574206f66206e6f6e60008201527f6578697374656e7420746f6b656e000000000000000000000000000000000000602082015250565b7f4552433732313a20617070726f76652063616c6c6572206973206e6f7420746f60008201527f6b656e206f776e6572206e6f7220617070726f76656420666f7220616c6c0000602082015250565b7f4552433732313a206d696e7420746f20746865207a65726f2061646472657373600082015250565b7f4f776e61626c653a2063616c6c6572206973206e6f7420746865206f776e6572600082015250565b7f4e6f7420436f6e7472616374204d696e74657200000000000000000000000000600082015250565b7f4552433732313a20696e76616c696420746f6b656e2049440000000000000000600082015250565b7f4552433732313a20617070726f76616c20746f2063757272656e74206f776e6560008201527f7200000000000000000000000000000000000000000000000000000000000000602082015250565b7f4552433732313a2063616c6c6572206973206e6f7420746f6b656e206f776e6560008201527f72206e6f7220617070726f766564000000000000000000000000000000000000602082015250565b7f5265656e7472616e637947756172643a207265656e7472616e742063616c6c00600082015250565b612de581612749565b8114612df057600080fd5b50565b612dfc8161275b565b8114612e0757600080fd5b50565b612e1381612767565b8114612e1e57600080fd5b50565b612e2a816127b3565b8114612e3557600080fd5b5056fea26469706673582212207de8d0df162b82ddcf21bea3c32688b9c864e1073566eebbc24bf68fc0de8e9d64736f6c63430008070033",
  "immutableReferences": {},
  "source": "// SPDX-License-Identifier: Leluk911\n\npragma solidity 0.8.7;\n\nimport \"../node_modules/@openzeppelin/contracts/utils/Counters.sol\";\nimport \"../node_modules/@openzeppelin/contracts/access/Ownable.sol\";\nimport \"../node_modules/@openzeppelin/contracts/token/ERC721/extensions/ERC721URIStorage.sol\";\nimport \"../node_modules/@openzeppelin/contracts/security/ReentrancyGuard.sol\";\n\ncontract CostumNFT is ERC721URIStorage, Ownable, ReentrancyGuard {\n    using Counters for Counters.Counter;\n    Counters.Counter private _tokenIds;\n\n    address private contractMinter;\n\n    constructor(\n        address _newOwner,\n        address _contractMinter,\n        string memory name_,\n        string memory symbol_\n    ) ERC721(name_, symbol_) {\n        transferOwnership(_newOwner);\n        contractMinter = _contractMinter;\n    }\n\n    event Mint(\n        uint256 indexed tokenId,\n        address indexed assignee,\n        string tokenURI\n    );\n\n    function _minting(string calldata tokenURI, address _client) internal {\n        require(contractMinter == msg.sender, \"Not Contract Minter\");\n\n        uint256 _tokenId = _tokenIds.current();\n        _tokenIds.increment();\n        _mint(_client, _tokenId);\n        _setTokenURI(_tokenId, tokenURI);\n        emit Mint(_tokenId, _client, tokenURI);\n    }\n\n    function minting(string calldata tokenURI, address _client)\n        external\n        nonReentrant\n    {\n        _minting(tokenURI, _client);\n    }\n}\n",
  "sourcePath": "/media/leluk/storage2/Studio Dev/Dapp portfolio/pres/contracts/Nft.sol",
  "compiler": {
    "name": "solc",
    "version": "0.8.7+commit.e28d00a7.Emscripten.clang"
  },
  "schemaVersion": "3.4.7",
  "updatedAt": "2022-08-14T07:33:22.403Z",
  "devdoc": {
    "kind": "dev",
    "methods": {
      "approve(address,uint256)": {
        "details": "See {IERC721-approve}."
      },
      "balanceOf(address)": {
        "details": "See {IERC721-balanceOf}."
      },
      "getApproved(uint256)": {
        "details": "See {IERC721-getApproved}."
      },
      "isApprovedForAll(address,address)": {
        "details": "See {IERC721-isApprovedForAll}."
      },
      "name()": {
        "details": "See {IERC721Metadata-name}."
      },
      "owner()": {
        "details": "Returns the address of the current owner."
      },
      "ownerOf(uint256)": {
        "details": "See {IERC721-ownerOf}."
      },
      "renounceOwnership()": {
        "details": "Leaves the contract without owner. It will not be possible to call `onlyOwner` functions anymore. Can only be called by the current owner. NOTE: Renouncing ownership will leave the contract without an owner, thereby removing any functionality that is only available to the owner."
      },
      "safeTransferFrom(address,address,uint256)": {
        "details": "See {IERC721-safeTransferFrom}."
      },
      "safeTransferFrom(address,address,uint256,bytes)": {
        "details": "See {IERC721-safeTransferFrom}."
      },
      "setApprovalForAll(address,bool)": {
        "details": "See {IERC721-setApprovalForAll}."
      },
      "supportsInterface(bytes4)": {
        "details": "See {IERC165-supportsInterface}."
      },
      "symbol()": {
        "details": "See {IERC721Metadata-symbol}."
      },
      "tokenURI(uint256)": {
        "details": "See {IERC721Metadata-tokenURI}."
      },
      "transferFrom(address,address,uint256)": {
        "details": "See {IERC721-transferFrom}."
      },
      "transferOwnership(address)": {
        "details": "Transfers ownership of the contract to a new account (`newOwner`). Can only be called by the current owner."
      }
    },
    "version": 1
  },
  "userdoc": {
    "kind": "user",
    "methods": {},
    "version": 1
  }
}