{
  "contractName": "StakingContract",
  "abi": [
    {
      "inputs": [],
      "stateMutability": "nonpayable",
      "type": "constructor"
    },
    {
      "inputs": [
        {
          "internalType": "address",
          "name": "_nftContractStaking",
          "type": "address"
        }
      ],
      "name": "_srcStakingRewardInfo",
      "outputs": [
        {
          "components": [
            {
              "internalType": "address",
              "name": "owner",
              "type": "address"
            },
            {
              "internalType": "address",
              "name": "reward",
              "type": "address"
            },
            {
              "internalType": "uint256",
              "name": "amountReward",
              "type": "uint256"
            },
            {
              "internalType": "uint256",
              "name": "emission",
              "type": "uint256"
            },
            {
              "internalType": "uint256",
              "name": "blockEnd",
              "type": "uint256"
            },
            {
              "internalType": "address",
              "name": "nftContractStaking",
              "type": "address"
            }
          ],
          "internalType": "struct StakingContract.StakingReward",
          "name": "infomation",
          "type": "tuple"
        }
      ],
      "stateMutability": "view",
      "type": "function"
    },
    {
      "inputs": [
        {
          "internalType": "uint256",
          "name": "_tokenId",
          "type": "uint256"
        },
        {
          "internalType": "address",
          "name": "_user",
          "type": "address"
        }
      ],
      "name": "_srcNftStakeForUser",
      "outputs": [
        {
          "internalType": "uint256",
          "name": "indexToken",
          "type": "uint256"
        },
        {
          "internalType": "bool",
          "name": "response",
          "type": "bool"
        }
      ],
      "stateMutability": "view",
      "type": "function"
    },
    {
      "inputs": [
        {
          "internalType": "address",
          "name": "_nftAddress",
          "type": "address"
        },
        {
          "internalType": "uint256[]",
          "name": "_series",
          "type": "uint256[]"
        }
      ],
      "name": "registerNftForStaking",
      "outputs": [],
      "stateMutability": "nonpayable",
      "type": "function"
    },
    {
      "inputs": [
        {
          "internalType": "address",
          "name": "_asset",
          "type": "address"
        },
        {
          "internalType": "uint256",
          "name": "_amount",
          "type": "uint256"
        },
        {
          "internalType": "uint256",
          "name": "_emission",
          "type": "uint256"
        },
        {
          "internalType": "uint256",
          "name": "_blockEnd",
          "type": "uint256"
        },
        {
          "internalType": "address",
          "name": "_nftContract",
          "type": "address"
        }
      ],
      "name": "setStakingReward",
      "outputs": [],
      "stateMutability": "nonpayable",
      "type": "function"
    },
    {
      "inputs": [
        {
          "internalType": "address",
          "name": "_nftContract",
          "type": "address"
        },
        {
          "internalType": "address",
          "name": "_user",
          "type": "address"
        },
        {
          "internalType": "uint256",
          "name": "_tokenId",
          "type": "uint256"
        },
        {
          "internalType": "uint256",
          "name": "_idNftRegisteredReward",
          "type": "uint256"
        }
      ],
      "name": "UserStakeNft",
      "outputs": [],
      "stateMutability": "nonpayable",
      "type": "function"
    },
    {
      "inputs": [
        {
          "internalType": "address",
          "name": "_nftContract",
          "type": "address"
        },
        {
          "internalType": "uint256",
          "name": "_tokenId",
          "type": "uint256"
        }
      ],
      "name": "unstakeNftAndReward",
      "outputs": [],
      "stateMutability": "nonpayable",
      "type": "function"
    }
  ],
  "bytecode": "0x608060405234801561001057600080fd5b506119c0806100206000396000f3fe608060405234801561001057600080fd5b50600436106100625760003560e01c80633fe5936614610067578063698c9c2514610097578063711427e6146100b35780638e5b4a8d146100cf578063e9de4d7214610100578063f8ce04251461011c575b600080fd5b610081600480360381019061007c91906110ee565b610138565b60405161008e919061157b565b60405180910390f35b6100b160048036038101906100ac919061121e565b6103a9565b005b6100cd60048036038101906100c891906111de565b6103be565b005b6100e960048036038101906100e491906112c6565b6103cd565b6040516100f7929190611596565b60405180910390f35b61011a6004803603810190610115919061111b565b6104ab565b005b61013660048036038101906101319190611182565b6104bd565b005b610140610f2f565b60005b60018054905081101561032c578273ffffffffffffffffffffffffffffffffffffffff166001828154811061017b5761017a6117cf565b5b906000526020600020906006020160050160009054906101000a900473ffffffffffffffffffffffffffffffffffffffff1673ffffffffffffffffffffffffffffffffffffffff16141561031957600181815481106101dd576101dc6117cf565b5b90600052602060002090600602016040518060c00160405290816000820160009054906101000a900473ffffffffffffffffffffffffffffffffffffffff1673ffffffffffffffffffffffffffffffffffffffff1673ffffffffffffffffffffffffffffffffffffffff1681526020016001820160009054906101000a900473ffffffffffffffffffffffffffffffffffffffff1673ffffffffffffffffffffffffffffffffffffffff1673ffffffffffffffffffffffffffffffffffffffff1681526020016002820154815260200160038201548152602001600482015481526020016005820160009054906101000a900473ffffffffffffffffffffffffffffffffffffffff1673ffffffffffffffffffffffffffffffffffffffff1673ffffffffffffffffffffffffffffffffffffffff168152505091505b808061032490611728565b915050610143565b506040518060c00160405280600073ffffffffffffffffffffffffffffffffffffffff168152602001600073ffffffffffffffffffffffffffffffffffffffff168152602001600081526020016000815260200160008152602001600073ffffffffffffffffffffffffffffffffffffffff168152509050919050565b6103b73386868686866104cc565b5050505050565b6103c98233836106f3565b5050565b60008060005b600260008573ffffffffffffffffffffffffffffffffffffffff1673ffffffffffffffffffffffffffffffffffffffff1681526020019081526020016000208054905081101561049b5784600260008673ffffffffffffffffffffffffffffffffffffffff1673ffffffffffffffffffffffffffffffffffffffff168152602001908152602001600020828154811061046f5761046e6117cf565b5b9060005260206000200154141561048857809250600191505b808061049390611728565b9150506103d3565b5060009150600190509250929050565b6104b784848484610af1565b50505050565b6104c8823383610d6b565b5050565b8473ffffffffffffffffffffffffffffffffffffffff166323b872dd8730876040518463ffffffff1660e01b81526004016105099392919061147b565b602060405180830381600087803b15801561052357600080fd5b505af1158015610537573d6000803e3d6000fd5b505050506040513d601f19601f8201168201806040525081019061055b9190611299565b5060016040518060c001604052808873ffffffffffffffffffffffffffffffffffffffff1681526020018773ffffffffffffffffffffffffffffffffffffffff1681526020018681526020018581526020018481526020018373ffffffffffffffffffffffffffffffffffffffff16815250908060018154018082558091505060019003906000526020600020906006020160009091909190915060008201518160000160006101000a81548173ffffffffffffffffffffffffffffffffffffffff021916908373ffffffffffffffffffffffffffffffffffffffff16021790555060208201518160010160006101000a81548173ffffffffffffffffffffffffffffffffffffffff021916908373ffffffffffffffffffffffffffffffffffffffff16021790555060408201518160020155606082015181600301556080820151816004015560a08201518160050160006101000a81548173ffffffffffffffffffffffffffffffffffffffff021916908373ffffffffffffffffffffffffffffffffffffffff1602179055505050505050505050565b426106fd84610138565b608001511115610742576040517f08c379a0000000000000000000000000000000000000000000000000000000008152600401610739906114fb565b60405180910390fd5b60008061074f83856103cd565b9150915080610793576040517f08c379a000000000000000000000000000000000000000000000000000000000815260040161078a906114db565b60405180910390fd5b6000600360008673ffffffffffffffffffffffffffffffffffffffff1673ffffffffffffffffffffffffffffffffffffffff16815260200190815260200160002060008581526020019081526020016000205490506000600360008773ffffffffffffffffffffffffffffffffffffffff1673ffffffffffffffffffffffffffffffffffffffff168152602001908152602001600020600086815260200190815260200160002081905550600260008673ffffffffffffffffffffffffffffffffffffffff1673ffffffffffffffffffffffffffffffffffffffff1681526020019081526020016000206001600260008873ffffffffffffffffffffffffffffffffffffffff1673ffffffffffffffffffffffffffffffffffffffff168152602001908152602001600020805490506108cc919061167b565b815481106108dd576108dc6117cf565b5b9060005260206000200154600260008773ffffffffffffffffffffffffffffffffffffffff1673ffffffffffffffffffffffffffffffffffffffff1681526020019081526020016000208481548110610939576109386117cf565b5b9060005260206000200181905550600260008673ffffffffffffffffffffffffffffffffffffffff1673ffffffffffffffffffffffffffffffffffffffff168152602001908152602001600020805480610996576109956117a0565b5b600190038181906000526020600020016000905590556000816109b888610138565b608001516109c6919061167b565b6109cf88610138565b606001516109dd9190611621565b90508673ffffffffffffffffffffffffffffffffffffffff166323b872dd3088886040518463ffffffff1660e01b8152600401610a1c9392919061147b565b600060405180830381600087803b158015610a3657600080fd5b505af1158015610a4a573d6000803e3d6000fd5b50505050610a5787610138565b6020015173ffffffffffffffffffffffffffffffffffffffff1663a9059cbb87836040518363ffffffff1660e01b8152600401610a959291906114b2565b602060405180830381600087803b158015610aaf57600080fd5b505af1158015610ac3573d6000803e3d6000fd5b505050506040513d601f19601f82011682018060405250810190610ae79190611299565b5050505050505050565b8373ffffffffffffffffffffffffffffffffffffffff1660008281548110610b1c57610b1b6117cf565b5b906000526020600020906003020160000160009054906101000a900473ffffffffffffffffffffffffffffffffffffffff1673ffffffffffffffffffffffffffffffffffffffff1614610ba4576040517f08c379a0000000000000000000000000000000000000000000000000000000008152600401610b9b9061153b565b60405180910390fd5b610bae8282610e8f565b610bed576040517f08c379a0000000000000000000000000000000000000000000000000000000008152600401610be49061155b565b60405180910390fd5b8373ffffffffffffffffffffffffffffffffffffffff166323b872dd8430856040518463ffffffff1660e01b8152600401610c2a9392919061147b565b600060405180830381600087803b158015610c4457600080fd5b505af1158015610c58573d6000803e3d6000fd5b5050505042610c6685610138565b6080015111610caa576040517f08c379a0000000000000000000000000000000000000000000000000000000008152600401610ca19061151b565b60405180910390fd5b42600360008573ffffffffffffffffffffffffffffffffffffffff1673ffffffffffffffffffffffffffffffffffffffff168152602001908152602001600020600084815260200190815260200160002081905550600260008473ffffffffffffffffffffffffffffffffffffffff1673ffffffffffffffffffffffffffffffffffffffff16815260200190815260200160002082908060018154018082558091505060019003906000526020600020016000909190919091505550505050565b600060405180606001604052808573ffffffffffffffffffffffffffffffffffffffff1681526020018473ffffffffffffffffffffffffffffffffffffffff16815260200183815250908060018154018082558091505060019003906000526020600020906003020160009091909190915060008201518160000160006101000a81548173ffffffffffffffffffffffffffffffffffffffff021916908373ffffffffffffffffffffffffffffffffffffffff16021790555060208201518160010160006101000a81548173ffffffffffffffffffffffffffffffffffffffff021916908373ffffffffffffffffffffffffffffffffffffffff1602179055506040820151816002019080519060200190610e87929190610fa7565b505050505050565b6000805b60008381548110610ea757610ea66117cf565b5b906000526020600020906003020160020180549050811015610f24578360008481548110610ed857610ed76117cf565b5b90600052602060002090600302016002018281548110610efb57610efa6117cf565b5b90600052602060002001541415610f1157600191505b8080610f1c90611728565b915050610e93565b506000905092915050565b6040518060c00160405280600073ffffffffffffffffffffffffffffffffffffffff168152602001600073ffffffffffffffffffffffffffffffffffffffff168152602001600081526020016000815260200160008152602001600073ffffffffffffffffffffffffffffffffffffffff1681525090565b828054828255906000526020600020908101928215610fe3579160200282015b82811115610fe2578251825591602001919060010190610fc7565b5b509050610ff09190610ff4565b5090565b5b8082111561100d576000816000905550600101610ff5565b5090565b600061102461101f846115e4565b6115bf565b9050808382526020820190508285602086028201111561104757611046611832565b5b60005b85811015611077578161105d88826110d9565b84526020840193506020830192505060018101905061104a565b5050509392505050565b60008135905061109081611945565b92915050565b600082601f8301126110ab576110aa61182d565b5b81356110bb848260208601611011565b91505092915050565b6000815190506110d38161195c565b92915050565b6000813590506110e881611973565b92915050565b6000602082840312156111045761110361183c565b5b600061111284828501611081565b91505092915050565b600080600080608085870312156111355761113461183c565b5b600061114387828801611081565b945050602061115487828801611081565b9350506040611165878288016110d9565b9250506060611176878288016110d9565b91505092959194509250565b600080604083850312156111995761119861183c565b5b60006111a785828601611081565b925050602083013567ffffffffffffffff8111156111c8576111c7611837565b5b6111d485828601611096565b9150509250929050565b600080604083850312156111f5576111f461183c565b5b600061120385828601611081565b9250506020611214858286016110d9565b9150509250929050565b600080600080600060a0868803121561123a5761123961183c565b5b600061124888828901611081565b9550506020611259888289016110d9565b945050604061126a888289016110d9565b935050606061127b888289016110d9565b925050608061128c88828901611081565b9150509295509295909350565b6000602082840312156112af576112ae61183c565b5b60006112bd848285016110c4565b91505092915050565b600080604083850312156112dd576112dc61183c565b5b60006112eb858286016110d9565b92505060206112fc85828601611081565b9150509250929050565b61130f816116af565b82525050565b61131e816116af565b82525050565b61132d816116c1565b82525050565b6000611340601183611610565b915061134b82611852565b602082019050919050565b6000611363601583611610565b915061136e8261187b565b602082019050919050565b6000611386601783611610565b9150611391826118a4565b602082019050919050565b60006113a9602983611610565b91506113b4826118cd565b604082019050919050565b60006113cc601983611610565b91506113d78261191c565b602082019050919050565b60c0820160008201516113f86000850182611306565b50602082015161140b6020850182611306565b50604082015161141e604085018261145d565b506060820151611431606085018261145d565b506080820151611444608085018261145d565b5060a082015161145760a0850182611306565b50505050565b611466816116ed565b82525050565b611475816116ed565b82525050565b60006060820190506114906000830186611315565b61149d6020830185611315565b6114aa604083018461146c565b949350505050565b60006040820190506114c76000830185611315565b6114d4602083018461146c565b9392505050565b600060208201905081810360008301526114f481611333565b9050919050565b6000602082019050818103600083015261151481611356565b9050919050565b6000602082019050818103600083015261153481611379565b9050919050565b600060208201905081810360008301526115548161139c565b9050919050565b60006020820190508181036000830152611574816113bf565b9050919050565b600060c08201905061159060008301846113e2565b92915050565b60006040820190506115ab600083018561146c565b6115b86020830184611324565b9392505050565b60006115c96115da565b90506115d582826116f7565b919050565b6000604051905090565b600067ffffffffffffffff8211156115ff576115fe6117fe565b5b602082029050602081019050919050565b600082825260208201905092915050565b600061162c826116ed565b9150611637836116ed565b9250817fffffffffffffffffffffffffffffffffffffffffffffffffffffffffffffffff04831182151516156116705761166f611771565b5b828202905092915050565b6000611686826116ed565b9150611691836116ed565b9250828210156116a4576116a3611771565b5b828203905092915050565b60006116ba826116cd565b9050919050565b60008115159050919050565b600073ffffffffffffffffffffffffffffffffffffffff82169050919050565b6000819050919050565b61170082611841565b810181811067ffffffffffffffff8211171561171f5761171e6117fe565b5b80604052505050565b6000611733826116ed565b91507fffffffffffffffffffffffffffffffffffffffffffffffffffffffffffffffff82141561176657611765611771565b5b600182019050919050565b7f4e487b7100000000000000000000000000000000000000000000000000000000600052601160045260246000fd5b7f4e487b7100000000000000000000000000000000000000000000000000000000600052603160045260246000fd5b7f4e487b7100000000000000000000000000000000000000000000000000000000600052603260045260246000fd5b7f4e487b7100000000000000000000000000000000000000000000000000000000600052604160045260246000fd5b600080fd5b600080fd5b600080fd5b600080fd5b6000601f19601f8301169050919050565b7f4e66744964206e6f742070726573656e74000000000000000000000000000000600082015250565b7f74696d65206c6f636b206e6f7420657870697265640000000000000000000000600082015250565b7f74696d6520666f72207265776172642065787069726564000000000000000000600082015250565b7f5374616b696e2063616d7061696e206e6f742070726573656e7420696e20746860008201527f6973206d6f6d656e740000000000000000000000000000000000000000000000602082015250565b7f536572696573206e6f7420696e206c6973742072657761726400000000000000600082015250565b61194e816116af565b811461195957600080fd5b50565b611965816116c1565b811461197057600080fd5b50565b61197c816116ed565b811461198757600080fd5b5056fea2646970667358221220f8612717bd8117fa16acc380df7d9fe7fce56bc5561b055180cee6e630cb0d8664736f6c63430008070033",
  "immutableReferences": {},
  "source": "// SPDX-License-Identifier: Leluk911\n\npragma solidity 0.8.7;\n\nimport \"../node_modules/@openzeppelin/contracts/token/ERC721/IERC721.sol\";\nimport \"../node_modules/@openzeppelin/contracts/token/ERC20/IERC20.sol\";\n\ncontract StakingContract {\n    struct NftRegistered {\n        address nftAddress;\n        address NftOwner;\n        uint256[] series;\n    }\n\n    NftRegistered[] private register;\n\n    struct StakingReward {\n        address owner;\n        address reward;\n        uint256 amountReward;\n        uint256 emission;\n        uint256 blockEnd;\n        address nftContractStaking;\n    }\n    StakingReward[] private stakingReward;\n\n    constructor() {}\n\n    mapping(address => uint256[]) internal nftStakeForUser;\n    mapping(address => mapping(uint256 => uint256)) internal blockStart;\n\n    function _registerNftForStaking(\n        address _nftAddress,\n        address _nftOwner,\n        uint256[] memory _series\n    ) internal {\n        //mancano controlli\n        register.push(NftRegistered(_nftAddress, _nftOwner, _series));\n    }\n\n    function _setStakingReward(\n        address _client,\n        address _asset,\n        uint256 _amount,\n        uint256 _emission,\n        uint256 _blockEnd,\n        address _nftContract\n    ) internal {\n        IERC20(_asset).transferFrom(_client, address(this), _amount);\n\n        stakingReward.push(\n            StakingReward(\n                _client,\n                _asset,\n                _amount,\n                _emission,\n                _blockEnd,\n                _nftContract\n            )\n        );\n    }\n\n    function _cechSeries(uint256 _idNft, uint256 _idContract)\n        internal\n        view\n        returns (bool response)\n    {\n        for (uint256 i; i < register[_idContract].series.length; i++) {\n            if (register[_idContract].series[i] == _idNft) {\n                response = true;\n            }\n        }\n        response = false;\n    }\n\n    function _srcStakingRewardInfo(address _nftContractStaking)\n        public\n        view\n        returns (StakingReward memory infomation)\n    {\n        for (uint256 i = 0; i < stakingReward.length; i++) {\n            if (stakingReward[i].nftContractStaking == _nftContractStaking) {\n                infomation = stakingReward[i];\n            }\n        }\n        infomation = StakingReward(address(0), address(0), 0, 0, 0, address(0));\n    }\n\n    function userStakeNft(\n        address _nftContract,\n        address _user,\n        uint256 _tokenId,\n        uint256 _idNftRegisteredReward\n    ) internal {\n        require(\n            register[_idNftRegisteredReward].nftAddress == _nftContract,\n            \"Stakin campain not present in this moment\"\n        );\n        require(\n            _cechSeries(_tokenId, _idNftRegisteredReward),\n            \"Series not in list reward\"\n        );\n        IERC721(_nftContract).transferFrom(_user, address(this), _tokenId);\n        require(\n            _srcStakingRewardInfo(_nftContract).blockEnd > block.timestamp,\n            \"time for reward expired\"\n        );\n        blockStart[_user][_tokenId] = block.timestamp;\n        nftStakeForUser[_user].push(_tokenId);\n    }\n\n    function _srcNftStakeForUser(uint256 _tokenId, address _user)\n        public\n        view\n        returns (uint256 indexToken, bool response)\n    {\n        for (\n            uint256 index = 0;\n            index < nftStakeForUser[_user].length;\n            index++\n        ) {\n            if (nftStakeForUser[_user][index] == _tokenId) {\n                indexToken = index;\n                response = true;\n            }\n        }\n        indexToken = 0;\n        response = true;\n    }\n\n    function _unstakeNftAndReward(\n        address _nftContract,\n        address _user,\n        uint256 _tokenId\n    ) internal {\n        require(\n            _srcStakingRewardInfo(_nftContract).blockEnd <= block.timestamp,\n            \"time lock not expired\"\n        );\n        (uint256 index, bool response) = _srcNftStakeForUser(_tokenId, _user);\n        require(response, \"NftId not present\");\n        uint256 _blockStart = blockStart[_user][_tokenId];\n        blockStart[_user][_tokenId] = 0;\n        nftStakeForUser[_user][index] = nftStakeForUser[_user][\n            nftStakeForUser[_user].length - 1\n        ];\n        nftStakeForUser[_user].pop();\n\n        uint256 rewardUser = (_srcStakingRewardInfo(_nftContract).emission *\n            (_srcStakingRewardInfo(_nftContract).blockEnd - _blockStart));\n\n        // miss sistem remove token staking from balance for staking\n        IERC721(_nftContract).transferFrom(address(this), _user, _tokenId);\n        // problay line balanceReward[_client][_asset][_nftContract] -= rewardUser;\n        IERC20((_srcStakingRewardInfo(_nftContract).reward)).transfer(\n            _user,\n            rewardUser\n        );\n    }\n\n    function registerNftForStaking(\n        address _nftAddress,\n        uint256[] memory _series\n    ) external {\n        _registerNftForStaking(_nftAddress, msg.sender, _series);\n    }\n\n    function setStakingReward(\n        address _asset,\n        uint256 _amount,\n        uint256 _emission,\n        uint256 _blockEnd,\n        address _nftContract\n    ) external {\n        _setStakingReward(\n            msg.sender,\n            _asset,\n            _amount,\n            _emission,\n            _blockEnd,\n            _nftContract\n        );\n    }\n\n    function UserStakeNft(\n        address _nftContract,\n        address _user,\n        uint256 _tokenId,\n        uint256 _idNftRegisteredReward\n    ) external {\n        userStakeNft(_nftContract, _user, _tokenId, _idNftRegisteredReward);\n    }\n\n    function unstakeNftAndReward(address _nftContract, uint256 _tokenId)\n        external\n    {\n        _unstakeNftAndReward(_nftContract, msg.sender, _tokenId);\n    }\n}\n",
  "sourcePath": "/media/leluk/storage2/Studio Dev/Dapp portfolio/pres/contracts/stakerContract.sol",
  "compiler": {
    "name": "solc",
    "version": "0.8.7+commit.e28d00a7.Emscripten.clang"
  },
  "schemaVersion": "3.4.7",
  "updatedAt": "2022-08-17T09:55:18.607Z",
  "devdoc": {
    "kind": "dev",
    "methods": {},
    "version": 1
  },
  "userdoc": {
    "kind": "user",
    "methods": {},
    "version": 1
  }
}